{
  "_format": "hh-sol-artifact-1",
  "contractName": "PokemonFactory",
  "sourceName": "contracts/PokemonFactory.sol",
  "abi": [
    {
      "anonymous": false,
      "inputs": [
        {
          "indexed": false,
          "internalType": "string",
          "name": "_name",
          "type": "string"
        }
      ],
      "name": "eventNewPokemon",
      "type": "event"
    },
    {
      "inputs": [
        {
          "internalType": "string",
          "name": "_name",
          "type": "string"
        },
        {
          "internalType": "string",
          "name": "_description",
          "type": "string"
        }
      ],
      "name": "createAbility",
      "outputs": [],
      "stateMutability": "nonpayable",
      "type": "function"
    },
    {
      "inputs": [
        {
          "internalType": "string",
          "name": "_name",
          "type": "string"
        },
        {
          "internalType": "uint256",
          "name": "_id",
          "type": "uint256"
        },
        {
          "internalType": "uint256[]",
          "name": "_abilityIds",
          "type": "uint256[]"
        }
      ],
      "name": "createPokemon",
      "outputs": [],
      "stateMutability": "nonpayable",
      "type": "function"
    },
    {
      "inputs": [],
      "name": "getAllPokemons",
      "outputs": [
        {
          "components": [
            {
              "internalType": "uint256",
              "name": "id",
              "type": "uint256"
            },
            {
              "internalType": "string",
              "name": "name",
              "type": "string"
            },
            {
              "internalType": "uint256[]",
              "name": "abilityIds",
              "type": "uint256[]"
            }
          ],
          "internalType": "struct PokemonFactory.Pokemon[]",
          "name": "",
          "type": "tuple[]"
        }
      ],
      "stateMutability": "view",
      "type": "function"
    },
    {
      "inputs": [
        {
          "internalType": "uint256",
          "name": "",
          "type": "uint256"
        }
      ],
      "name": "pokemonToOwner",
      "outputs": [
        {
          "internalType": "address",
          "name": "",
          "type": "address"
        }
      ],
      "stateMutability": "view",
      "type": "function"
    }
  ],
  "bytecode": "0x608060405234801561001057600080fd5b50611086806100206000396000f3fe608060405234801561001057600080fd5b506004361061004c5760003560e01c80632f7467b3146100515780635e9167901461008157806374124db01461009f578063821af9de146100bb575b600080fd5b61006b6004803603810190610066919061057f565b6100d7565b60405161007891906105ed565b60405180910390f35b61008961010a565b604051610096919061086f565b60405180910390f35b6100b960048036038101906100b491906109c6565b61025d565b005b6100d560048036038101906100d09190610b06565b6102cf565b005b60026020528060005260406000206000915054906101000a900473ffffffffffffffffffffffffffffffffffffffff1681565b60606001805480602002602001604051908101604052809291908181526020016000905b8282101561025457838290600052602060002090600302016040518060600160405290816000820154815260200160018201805461016b90610bc0565b80601f016020809104026020016040519081016040528092919081815260200182805461019790610bc0565b80156101e45780601f106101b9576101008083540402835291602001916101e4565b820191906000526020600020905b8154815290600101906020018083116101c757829003601f168201915b505050505081526020016002820180548060200260200160405190810160405280929190818152602001828054801561023c57602002820191906000526020600020905b815481526020019060010190808311610228575b5050505050815250508152602001906001019061012e565b50505050905090565b6000604051806040016040528084815260200183815250908060018154018082558091505060019003906000526020600020906002020160009091909190915060008201518160000190816102b29190610d9d565b5060208201518160010190816102c89190610d9d565b5050505050565b600083905060008311610317576040517f08c379a000000000000000000000000000000000000000000000000000000000815260040161030e90610ecc565b60405180910390fd5b60028151101561035c576040517f08c379a000000000000000000000000000000000000000000000000000000000815260040161035390610f5e565b60405180910390fd5b6000604051806060016040528085815260200186815260200184815250905060018190806001815401808255809150506001900390600052602060002090600302016000909190919091506000820151816000015560208201518160010190816103c69190610d9d565b5060408201518160020190805190602001906103e39291906104cb565b505050336002600086815260200190815260200160002060006101000a81548173ffffffffffffffffffffffffffffffffffffffff021916908373ffffffffffffffffffffffffffffffffffffffff160217905550600360003373ffffffffffffffffffffffffffffffffffffffff1673ffffffffffffffffffffffffffffffffffffffff168152602001908152602001600020600081548092919061048890610fad565b91905055507f9018649032bdfabe07c5fa8e887df7dda6baf8eac2ef8026b39eebed1fdadeff856040516104bc919061102e565b60405180910390a15050505050565b828054828255906000526020600020908101928215610507579160200282015b828111156105065782518255916020019190600101906104eb565b5b5090506105149190610518565b5090565b5b80821115610531576000816000905550600101610519565b5090565b6000604051905090565b600080fd5b600080fd5b6000819050919050565b61055c81610549565b811461056757600080fd5b50565b60008135905061057981610553565b92915050565b6000602082840312156105955761059461053f565b5b60006105a38482850161056a565b91505092915050565b600073ffffffffffffffffffffffffffffffffffffffff82169050919050565b60006105d7826105ac565b9050919050565b6105e7816105cc565b82525050565b600060208201905061060260008301846105de565b92915050565b600081519050919050565b600082825260208201905092915050565b6000819050602082019050919050565b61063d81610549565b82525050565b600081519050919050565b600082825260208201905092915050565b60005b8381101561067d578082015181840152602081019050610662565b60008484015250505050565b6000601f19601f8301169050919050565b60006106a582610643565b6106af818561064e565b93506106bf81856020860161065f565b6106c881610689565b840191505092915050565b600081519050919050565b600082825260208201905092915050565b6000819050602082019050919050565b600061070b8383610634565b60208301905092915050565b6000602082019050919050565b600061072f826106d3565b61073981856106de565b9350610744836106ef565b8060005b8381101561077557815161075c88826106ff565b975061076783610717565b925050600181019050610748565b5085935050505092915050565b600060608301600083015161079a6000860182610634565b50602083015184820360208601526107b2828261069a565b915050604083015184820360408601526107cc8282610724565b9150508091505092915050565b60006107e58383610782565b905092915050565b6000602082019050919050565b600061080582610608565b61080f8185610613565b93508360208202850161082185610624565b8060005b8581101561085d578484038952815161083e85826107d9565b9450610849836107ed565b925060208a01995050600181019050610825565b50829750879550505050505092915050565b6000602082019050818103600083015261088981846107fa565b905092915050565b600080fd5b600080fd5b7f4e487b7100000000000000000000000000000000000000000000000000000000600052604160045260246000fd5b6108d382610689565b810181811067ffffffffffffffff821117156108f2576108f161089b565b5b80604052505050565b6000610905610535565b905061091182826108ca565b919050565b600067ffffffffffffffff8211156109315761093061089b565b5b61093a82610689565b9050602081019050919050565b82818337600083830152505050565b600061096961096484610916565b6108fb565b90508281526020810184848401111561098557610984610896565b5b610990848285610947565b509392505050565b600082601f8301126109ad576109ac610891565b5b81356109bd848260208601610956565b91505092915050565b600080604083850312156109dd576109dc61053f565b5b600083013567ffffffffffffffff8111156109fb576109fa610544565b5b610a0785828601610998565b925050602083013567ffffffffffffffff811115610a2857610a27610544565b5b610a3485828601610998565b9150509250929050565b600067ffffffffffffffff821115610a5957610a5861089b565b5b602082029050602081019050919050565b600080fd5b6000610a82610a7d84610a3e565b6108fb565b90508083825260208201905060208402830185811115610aa557610aa4610a6a565b5b835b81811015610ace5780610aba888261056a565b845260208401935050602081019050610aa7565b5050509392505050565b600082601f830112610aed57610aec610891565b5b8135610afd848260208601610a6f565b91505092915050565b600080600060608486031215610b1f57610b1e61053f565b5b600084013567ffffffffffffffff811115610b3d57610b3c610544565b5b610b4986828701610998565b9350506020610b5a8682870161056a565b925050604084013567ffffffffffffffff811115610b7b57610b7a610544565b5b610b8786828701610ad8565b9150509250925092565b7f4e487b7100000000000000000000000000000000000000000000000000000000600052602260045260246000fd5b60006002820490506001821680610bd857607f821691505b602082108103610beb57610bea610b91565b5b50919050565b60008190508160005260206000209050919050565b60006020601f8301049050919050565b600082821b905092915050565b600060088302610c537fffffffffffffffffffffffffffffffffffffffffffffffffffffffffffffffff82610c16565b610c5d8683610c16565b95508019841693508086168417925050509392505050565b6000819050919050565b6000610c9a610c95610c9084610549565b610c75565b610549565b9050919050565b6000819050919050565b610cb483610c7f565b610cc8610cc082610ca1565b848454610c23565b825550505050565b600090565b610cdd610cd0565b610ce8818484610cab565b505050565b5b81811015610d0c57610d01600082610cd5565b600181019050610cee565b5050565b601f821115610d5157610d2281610bf1565b610d2b84610c06565b81016020851015610d3a578190505b610d4e610d4685610c06565b830182610ced565b50505b505050565b600082821c905092915050565b6000610d7460001984600802610d56565b1980831691505092915050565b6000610d8d8383610d63565b9150826002028217905092915050565b610da682610643565b67ffffffffffffffff811115610dbf57610dbe61089b565b5b610dc98254610bc0565b610dd4828285610d10565b600060209050601f831160018114610e075760008415610df5578287015190505b610dff8582610d81565b865550610e67565b601f198416610e1586610bf1565b60005b82811015610e3d57848901518255600182019150602085019450602081019050610e18565b86831015610e5a5784890151610e56601f891682610d63565b8355505b6001600288020188555050505b505050505050565b600082825260208201905092915050565b7f6964206d7573742062652067726561746572207468616e203000000000000000600082015250565b6000610eb6601983610e6f565b9150610ec182610e80565b602082019050919050565b60006020820190508181036000830152610ee581610ea9565b9050919050565b7f6e616d65206d75737420626520657175616c206f72206772656174657220746860008201527f616e203220636861726163746572730000000000000000000000000000000000602082015250565b6000610f48602f83610e6f565b9150610f5382610eec565b604082019050919050565b60006020820190508181036000830152610f7781610f3b565b9050919050565b7f4e487b7100000000000000000000000000000000000000000000000000000000600052601160045260246000fd5b6000610fb882610549565b91507fffffffffffffffffffffffffffffffffffffffffffffffffffffffffffffffff8203610fea57610fe9610f7e565b5b600182019050919050565b600061100082610643565b61100a8185610e6f565b935061101a81856020860161065f565b61102381610689565b840191505092915050565b600060208201905081810360008301526110488184610ff5565b90509291505056fea2646970667358221220419a66bb15b57cc8ab12b5135abab7114edb74a197b9923b0b0d93740b4c86e864736f6c63430008120033",
  "linkReferences": {},
  "deployedLinkReferences": {}
}